{
  "contractName": "SimpleToken",
  "abi": [
    {
      "inputs": [
        {
          "internalType": "uint256",
          "name": "_initialSupply",
          "type": "uint256"
        }
      ],
      "stateMutability": "nonpayable",
      "type": "constructor"
    },
    {
      "inputs": [
        {
          "internalType": "address",
          "name": "",
          "type": "address"
        }
      ],
      "name": "balanceOf",
      "outputs": [
        {
          "internalType": "uint256",
          "name": "",
          "type": "uint256"
        }
      ],
      "stateMutability": "view",
      "type": "function",
      "constant": true
    },
    {
      "inputs": [],
      "name": "decimals",
      "outputs": [
        {
          "internalType": "uint8",
          "name": "",
          "type": "uint8"
        }
      ],
      "stateMutability": "view",
      "type": "function",
      "constant": true
    },
    {
      "inputs": [],
      "name": "name",
      "outputs": [
        {
          "internalType": "string",
          "name": "",
          "type": "string"
        }
      ],
      "stateMutability": "view",
      "type": "function",
      "constant": true
    },
    {
      "inputs": [],
      "name": "symbol",
      "outputs": [
        {
          "internalType": "string",
          "name": "",
          "type": "string"
        }
      ],
      "stateMutability": "view",
      "type": "function",
      "constant": true
    },
    {
      "inputs": [],
      "name": "totalSupply",
      "outputs": [
        {
          "internalType": "uint256",
          "name": "",
          "type": "uint256"
        }
      ],
      "stateMutability": "view",
      "type": "function",
      "constant": true
    },
    {
      "inputs": [
        {
          "internalType": "uint256",
          "name": "_amount",
          "type": "uint256"
        }
      ],
      "name": "mintToken",
      "outputs": [],
      "stateMutability": "nonpayable",
      "type": "function"
    }
  ],
  "bytecode": "0x60806040526040518060400160405280600b81526020017f53696d706c65546f6b656e000000000000000000000000000000000000000000815250600090805190602001906200005192919062000170565b506040518060400160405280600381526020017f53544b0000000000000000000000000000000000000000000000000000000000815250600190805190602001906200009f92919062000170565b506012600260006101000a81548160ff021916908360ff160217905550348015620000c957600080fd5b5060405162000d6338038062000d638339818101604052810190620000ef919062000237565b600260009054906101000a900460ff1660ff16600a620001109190620002be565b816200011d9190620003fb565b600381905550600354600460003373ffffffffffffffffffffffffffffffffffffffff1673ffffffffffffffffffffffffffffffffffffffff168152602001908152602001600020819055505062000521565b8280546200017e9062000466565b90600052602060002090601f016020900481019282620001a25760008555620001ee565b82601f10620001bd57805160ff1916838001178555620001ee565b82800160010185558215620001ee579182015b82811115620001ed578251825591602001919060010190620001d0565b5b509050620001fd919062000201565b5090565b5b808211156200021c57600081600090555060010162000202565b5090565b600081519050620002318162000507565b92915050565b6000602082840312156200024a57600080fd5b60006200025a8482850162000220565b91505092915050565b6000808291508390505b6001851115620002b5578086048111156200028d576200028c6200049c565b5b60018516156200029d5780820291505b8081029050620002ad85620004fa565b94506200026d565b94509492505050565b6000620002cb826200045c565b9150620002d8836200045c565b9250620003077fffffffffffffffffffffffffffffffffffffffffffffffffffffffffffffffff84846200030f565b905092915050565b600082620003215760019050620003f4565b81620003315760009050620003f4565b81600181146200034a576002811462000355576200038b565b6001915050620003f4565b60ff8411156200036a57620003696200049c565b5b8360020a9150848211156200038457620003836200049c565b5b50620003f4565b5060208310610133831016604e8410600b8410161715620003c55782820a905083811115620003bf57620003be6200049c565b5b620003f4565b620003d4848484600162000263565b92509050818404811115620003ee57620003ed6200049c565b5b81810290505b9392505050565b600062000408826200045c565b915062000415836200045c565b9250817fffffffffffffffffffffffffffffffffffffffffffffffffffffffffffffffff04831182151516156200045157620004506200049c565b5b828202905092915050565b6000819050919050565b600060028204905060018216806200047f57607f821691505b60208210811415620004965762000495620004cb565b5b50919050565b7f4e487b7100000000000000000000000000000000000000000000000000000000600052601160045260246000fd5b7f4e487b7100000000000000000000000000000000000000000000000000000000600052602260045260246000fd5b60008160011c9050919050565b62000512816200045c565b81146200051e57600080fd5b50565b61083280620005316000396000f3fe608060405234801561001057600080fd5b50600436106100625760003560e01c806306fdde031461006757806318160ddd14610085578063313ce567146100a357806370a08231146100c157806395d89b41146100f1578063c634d0321461010f575b600080fd5b61006f61012b565b60405161007c919061040f565b60405180910390f35b61008d6101b9565b60405161009a9190610431565b60405180910390f35b6100ab6101bf565b6040516100b8919061044c565b60405180910390f35b6100db60048036038101906100d69190610366565b6101d2565b6040516100e89190610431565b60405180910390f35b6100f96101ea565b604051610106919061040f565b60405180910390f35b6101296004803603810190610124919061038f565b610278565b005b6000805461013890610720565b80601f016020809104026020016040519081016040528092919081815260200182805461016490610720565b80156101b15780601f10610186576101008083540402835291602001916101b1565b820191906000526020600020905b81548152906001019060200180831161019457829003601f168201915b505050505081565b60035481565b600260009054906101000a900460ff1681565b60046020528060005260406000206000915090505481565b600180546101f790610720565b80601f016020809104026020016040519081016040528092919081815260200182805461022390610720565b80156102705780601f1061024557610100808354040283529160200191610270565b820191906000526020600020905b81548152906001019060200180831161025357829003601f168201915b505050505081565b600260009054906101000a900460ff1660ff16600a610297919061052c565b816102a2919061064a565b600360008282546102b39190610483565b92505081905550600260009054906101000a900460ff1660ff16600a6102d9919061052c565b816102e4919061064a565b600460003373ffffffffffffffffffffffffffffffffffffffff1673ffffffffffffffffffffffffffffffffffffffff16815260200190815260200160002060008282546103329190610483565b9250508190555050565b60008135905061034b816107ce565b92915050565b600081359050610360816107e5565b92915050565b60006020828403121561037857600080fd5b60006103868482850161033c565b91505092915050565b6000602082840312156103a157600080fd5b60006103af84828501610351565b91505092915050565b60006103c382610467565b6103cd8185610472565b93506103dd8185602086016106ed565b6103e6816107b0565b840191505092915050565b6103fa816106d6565b82525050565b610409816106e0565b82525050565b6000602082019050818103600083015261042981846103b8565b905092915050565b600060208201905061044660008301846103f1565b92915050565b60006020820190506104616000830184610400565b92915050565b600081519050919050565b600082825260208201905092915050565b600061048e826106d6565b9150610499836106d6565b9250827fffffffffffffffffffffffffffffffffffffffffffffffffffffffffffffffff038211156104ce576104cd610752565b5b828201905092915050565b6000808291508390505b6001851115610523578086048111156104ff576104fe610752565b5b600185161561050e5780820291505b808102905061051c856107c1565b94506104e3565b94509492505050565b6000610537826106d6565b9150610542836106d6565b925061056f7fffffffffffffffffffffffffffffffffffffffffffffffffffffffffffffffff8484610577565b905092915050565b6000826105875760019050610643565b816105955760009050610643565b81600181146105ab57600281146105b5576105e4565b6001915050610643565b60ff8411156105c7576105c6610752565b5b8360020a9150848211156105de576105dd610752565b5b50610643565b5060208310610133831016604e8410600b84101617156106195782820a90508381111561061457610613610752565b5b610643565b61062684848460016104d9565b9250905081840481111561063d5761063c610752565b5b81810290505b9392505050565b6000610655826106d6565b9150610660836106d6565b9250817fffffffffffffffffffffffffffffffffffffffffffffffffffffffffffffffff048311821515161561069957610698610752565b5b828202905092915050565b60006106af826106b6565b9050919050565b600073ffffffffffffffffffffffffffffffffffffffff82169050919050565b6000819050919050565b600060ff82169050919050565b60005b8381101561070b5780820151818401526020810190506106f0565b8381111561071a576000848401525b50505050565b6000600282049050600182168061073857607f821691505b6020821081141561074c5761074b610781565b5b50919050565b7f4e487b7100000000000000000000000000000000000000000000000000000000600052601160045260246000fd5b7f4e487b7100000000000000000000000000000000000000000000000000000000600052602260045260246000fd5b6000601f19601f8301169050919050565b60008160011c9050919050565b6107d7816106a4565b81146107e257600080fd5b50565b6107ee816106d6565b81146107f957600080fd5b5056fea264697066735822122055e676f3093252c8221030f4f59a93d8788b86835953574a1191b9cb81aa8c5064736f6c63430008000033",
  "immutableReferences": {},
  "source": "// SPDX-License-Identifier: MIT\r\npragma solidity ^0.8.0;\r\n\r\ncontract SimpleToken {\r\n    string public name = \"SimpleToken\";\r\n    string public symbol = \"STK\";\r\n    uint8 public decimals = 18;\r\n    uint256 public totalSupply;\r\n    mapping(address => uint256) public balanceOf;\r\n\r\n    constructor(uint256 _initialSupply) {\r\n        totalSupply = _initialSupply * 10 ** uint256(decimals);\r\n        balanceOf[msg.sender] = totalSupply;\r\n    }\r\n\r\n    function mintToken(uint256 _amount) public {\r\n        totalSupply += _amount * 10 ** uint256(decimals);\r\n        balanceOf[msg.sender] += _amount * 10 ** uint256(decimals);\r\n    }\r\n}\r\n\r\n",
  "sourcePath": "C:\\Users\\hp\\Desktop\\ethereumproject\\contracts\\SimpleToken.sol",
  "compiler": {
    "name": "solc",
    "version": "0.8.0+commit.c7dfd78e.Emscripten.clang"
  },
  "schemaVersion": "3.4.16",
  "updatedAt": "2024-08-30T06:06:23.006Z",
  "networkType": "ethereum",
  "devdoc": {
    "kind": "dev",
    "methods": {},
    "version": 1
  },
  "userdoc": {
    "kind": "user",
    "methods": {},
    "version": 1
  }
}